{
  "contractName": "MainContract",
  "abi": [
    {
      "anonymous": false,
      "inputs": [
        {
          "indexed": true,
          "name": "userAddress",
          "type": "address"
        },
        {
          "indexed": false,
          "name": "index",
          "type": "uint256"
        },
        {
          "indexed": false,
          "name": "userFullName",
          "type": "string"
        },
        {
          "indexed": false,
          "name": "userType",
          "type": "string"
        },
        {
          "indexed": false,
          "name": "userBrand",
          "type": "string"
        },
        {
          "indexed": false,
          "name": "userAge",
          "type": "uint256"
        }
      ],
      "name": "LogNewUser",
      "type": "event"
    },
    {
      "anonymous": false,
      "inputs": [
        {
          "indexed": true,
          "name": "userAddress",
          "type": "address"
        },
        {
          "indexed": false,
          "name": "index",
          "type": "uint256"
        },
        {
          "indexed": false,
          "name": "userFullName",
          "type": "string"
        },
        {
          "indexed": false,
          "name": "userType",
          "type": "string"
        },
        {
          "indexed": false,
          "name": "userBrand",
          "type": "string"
        },
        {
          "indexed": false,
          "name": "userAge",
          "type": "uint256"
        }
      ],
      "name": "LogUpdateUser",
      "type": "event"
    },
    {
      "anonymous": false,
      "inputs": [
        {
          "indexed": true,
          "name": "userAddress",
          "type": "address"
        },
        {
          "indexed": false,
          "name": "index",
          "type": "uint256"
        }
      ],
      "name": "LogDeleteUser",
      "type": "event"
    },
    {
      "constant": true,
      "inputs": [
        {
          "name": "userAddress",
          "type": "address"
        }
      ],
      "name": "isUser",
      "outputs": [
        {
          "name": "isIndeed",
          "type": "bool"
        }
      ],
      "payable": false,
      "stateMutability": "view",
      "type": "function"
    },
    {
      "constant": false,
      "inputs": [
        {
          "name": "userAddress",
          "type": "address"
        },
        {
          "name": "_userFullName",
          "type": "string"
        },
        {
          "name": "_userType",
          "type": "string"
        },
        {
          "name": "_userBrand",
          "type": "string"
        },
        {
          "name": "_userAge",
          "type": "uint256"
        }
      ],
      "name": "insertUser",
      "outputs": [
        {
          "name": "index",
          "type": "uint256"
        }
      ],
      "payable": false,
      "stateMutability": "nonpayable",
      "type": "function"
    },
    {
      "constant": true,
      "inputs": [
        {
          "name": "userAddress",
          "type": "address"
        }
      ],
      "name": "getUser",
      "outputs": [
        {
          "name": "userFullName",
          "type": "string"
        },
        {
          "name": "userType",
          "type": "string"
        },
        {
          "name": "userBrand",
          "type": "string"
        },
        {
          "name": "userAge",
          "type": "uint256"
        }
      ],
      "payable": false,
      "stateMutability": "view",
      "type": "function"
    },
    {
      "constant": false,
      "inputs": [
        {
          "name": "userAddress",
          "type": "address"
        },
        {
          "name": "_userFullName",
          "type": "string"
        }
      ],
      "name": "updateUserFullName",
      "outputs": [
        {
          "name": "success",
          "type": "bool"
        }
      ],
      "payable": false,
      "stateMutability": "nonpayable",
      "type": "function"
    },
    {
      "constant": false,
      "inputs": [
        {
          "name": "userAddress",
          "type": "address"
        },
        {
          "name": "_userType",
          "type": "string"
        }
      ],
      "name": "updateUserType",
      "outputs": [
        {
          "name": "success",
          "type": "bool"
        }
      ],
      "payable": false,
      "stateMutability": "nonpayable",
      "type": "function"
    },
    {
      "constant": false,
      "inputs": [
        {
          "name": "userAddress",
          "type": "address"
        },
        {
          "name": "_userBrand",
          "type": "string"
        }
      ],
      "name": "updateUserBrand",
      "outputs": [
        {
          "name": "success",
          "type": "bool"
        }
      ],
      "payable": false,
      "stateMutability": "nonpayable",
      "type": "function"
    },
    {
      "constant": false,
      "inputs": [
        {
          "name": "userAddress",
          "type": "address"
        },
        {
          "name": "_userAge",
          "type": "uint256"
        }
      ],
      "name": "updateUserAge",
      "outputs": [
        {
          "name": "success",
          "type": "bool"
        }
      ],
      "payable": false,
      "stateMutability": "nonpayable",
      "type": "function"
    },
    {
      "constant": true,
      "inputs": [],
      "name": "getUserCount",
      "outputs": [
        {
          "name": "count",
          "type": "uint256"
        }
      ],
      "payable": false,
      "stateMutability": "view",
      "type": "function"
    },
    {
      "constant": true,
      "inputs": [
        {
          "name": "index",
          "type": "uint256"
        }
      ],
      "name": "getUserAtIndex",
      "outputs": [
        {
          "name": "userAdress",
          "type": "address"
        }
      ],
      "payable": false,
      "stateMutability": "view",
      "type": "function"
    },
    {
      "constant": false,
      "inputs": [
        {
          "name": "userAddress",
          "type": "address"
        }
      ],
      "name": "deleteUser",
      "outputs": [
        {
          "name": "index",
          "type": "uint256"
        }
      ],
      "payable": false,
      "stateMutability": "nonpayable",
      "type": "function"
    }
  ],
  "bytecode": "0x608060405234801561001057600080fd5b5061219b806100206000396000f3006080604052600436106100a4576000357c0100000000000000000000000000000000000000000000000000000000900463ffffffff168063291070a7146100a95780632e071db3146101dc5780634209fff1146102415780635c60f2261461029c5780636f77926b146102f35780637b474bad1461048e5780637f3efdb51461052f578063b5cb15f7146105d0578063e8c931e4146105fb578063ffcc7bbf1461069c575b600080fd5b3480156100b557600080fd5b506101c6600480360381019080803573ffffffffffffffffffffffffffffffffffffffff169060200190929190803590602001908201803590602001908080601f0160208091040260200160405190810160405280939291908181526020018383808284378201915050505050509192919290803590602001908201803590602001908080601f0160208091040260200160405190810160405280939291908181526020018383808284378201915050505050509192919290803590602001908201803590602001908080601f016020809104026020016040519081016040528093929190818152602001838380828437820191505050505050919291929080359060200190929190505050610709565b6040518082815260200191505060405180910390f35b3480156101e857600080fd5b50610227600480360381019080803573ffffffffffffffffffffffffffffffffffffffff16906020019092919080359060200190929190505050610a59565b604051808215151515815260200191505060405180910390f35b34801561024d57600080fd5b50610282600480360381019080803573ffffffffffffffffffffffffffffffffffffffff169060200190929190505050610db4565b604051808215151515815260200191505060405180910390f35b3480156102a857600080fd5b506102dd600480360381019080803573ffffffffffffffffffffffffffffffffffffffff169060200190929190505050610e7d565b6040518082815260200191505060405180910390f35b3480156102ff57600080fd5b50610334600480360381019080803573ffffffffffffffffffffffffffffffffffffffff16906020019092919050505061135e565b60405180806020018060200180602001858152602001848103845288818151815260200191508051906020019080838360005b83811015610382578082015181840152602081019050610367565b50505050905090810190601f1680156103af5780820380516001836020036101000a031916815260200191505b50848103835287818151815260200191508051906020019080838360005b838110156103e85780820151818401526020810190506103cd565b50505050905090810190601f1680156104155780820380516001836020036101000a031916815260200191505b50848103825286818151815260200191508051906020019080838360005b8381101561044e578082015181840152602081019050610433565b50505050905090810190601f16801561047b5780820380516001836020036101000a031916815260200191505b5097505050505050505060405180910390f35b34801561049a57600080fd5b50610515600480360381019080803573ffffffffffffffffffffffffffffffffffffffff169060200190929190803590602001908201803590602001908080601f0160208091040260200160405190810160405280939291908181526020018383808284378201915050505050509192919290505050611661565b604051808215151515815260200191505060405180910390f35b34801561053b57600080fd5b506105b6600480360381019080803573ffffffffffffffffffffffffffffffffffffffff169060200190929190803590602001908201803590602001908080601f01602080910402602001604051908101604052809392919081815260200183838082843782019150505050505091929192905050506119b0565b604051808215151515815260200191505060405180910390f35b3480156105dc57600080fd5b506105e5611cff565b6040518082815260200191505060405180910390f35b34801561060757600080fd5b50610682600480360381019080803573ffffffffffffffffffffffffffffffffffffffff169060200190929190803590602001908201803590602001908080601f0160208091040260200160405190810160405280939291908181526020018383808284378201915050505050509192919290505050611d0c565b604051808215151515815260200191505060405180910390f35b3480156106a857600080fd5b506106c76004803603810190808035906020019092919050505061205b565b604051808273ffffffffffffffffffffffffffffffffffffffff1673ffffffffffffffffffffffffffffffffffffffff16815260200191505060405180910390f35b600061071486610db4565b15151561072057600080fd5b846000808873ffffffffffffffffffffffffffffffffffffffff1673ffffffffffffffffffffffffffffffffffffffff168152602001908152602001600020600001908051906020019061077592919061209e565b50816000808873ffffffffffffffffffffffffffffffffffffffff1673ffffffffffffffffffffffffffffffffffffffff168152602001908152602001600020600301819055506001808790806001815401808255809150509060018203906000526020600020016000909192909190916101000a81548173ffffffffffffffffffffffffffffffffffffffff021916908373ffffffffffffffffffffffffffffffffffffffff160217905550036000808873ffffffffffffffffffffffffffffffffffffffff1673ffffffffffffffffffffffffffffffffffffffff168152602001908152602001600020600401819055508573ffffffffffffffffffffffffffffffffffffffff167f1dec9c389ad8b1b4d012bc24d02cb2d54cf773c914a13ebfae44135a28af28b26000808973ffffffffffffffffffffffffffffffffffffffff1673ffffffffffffffffffffffffffffffffffffffff168152602001908152602001600020600401548787878760405180868152602001806020018060200180602001858152602001848103845288818151815260200191508051906020019080838360005b8381101561093a57808201518184015260208101905061091f565b50505050905090810190601f1680156109675780820380516001836020036101000a031916815260200191505b50848103835287818151815260200191508051906020019080838360005b838110156109a0578082015181840152602081019050610985565b50505050905090810190601f1680156109cd5780820380516001836020036101000a031916815260200191505b50848103825286818151815260200191508051906020019080838360005b83811015610a065780820151818401526020810190506109eb565b50505050905090810190601f168015610a335780820380516001836020036101000a031916815260200191505b509850505050505050505060405180910390a26001808054905003905095945050505050565b6000610a6483610db4565b1515610a6f57600080fd5b816000808573ffffffffffffffffffffffffffffffffffffffff1673ffffffffffffffffffffffffffffffffffffffff168152602001908152602001600020600301819055508273ffffffffffffffffffffffffffffffffffffffff167f120b81bff87a103db25f478f9838f6c78d30aaccd4fc343961a14962f755f68b6000808673ffffffffffffffffffffffffffffffffffffffff1673ffffffffffffffffffffffffffffffffffffffff168152602001908152602001600020600401546000808773ffffffffffffffffffffffffffffffffffffffff1673ffffffffffffffffffffffffffffffffffffffff1681526020019081526020016000206000016000808873ffffffffffffffffffffffffffffffffffffffff1673ffffffffffffffffffffffffffffffffffffffff1681526020019081526020016000206001016000808973ffffffffffffffffffffffffffffffffffffffff1673ffffffffffffffffffffffffffffffffffffffff1681526020019081526020016000206002018760405180868152602001806020018060200180602001858152602001848103845288818154600181600116156101000203166002900481526020019150805460018160011615610100020316600290048015610c905780601f10610c6557610100808354040283529160200191610c90565b820191906000526020600020905b815481529060010190602001808311610c7357829003601f168201915b5050848103835287818154600181600116156101000203166002900481526020019150805460018160011615610100020316600290048015610d135780601f10610ce857610100808354040283529160200191610d13565b820191906000526020600020905b815481529060010190602001808311610cf657829003601f168201915b5050848103825286818154600181600116156101000203166002900481526020019150805460018160011615610100020316600290048015610d965780601f10610d6b57610100808354040283529160200191610d96565b820191906000526020600020905b815481529060010190602001808311610d7957829003601f168201915b50509850505050505050505060405180910390a26001905092915050565b6000806001805490501415610dcc5760009050610e78565b8173ffffffffffffffffffffffffffffffffffffffff1660016000808573ffffffffffffffffffffffffffffffffffffffff1673ffffffffffffffffffffffffffffffffffffffff16815260200190815260200160002060040154815481101515610e3357fe5b9060005260206000200160009054906101000a900473ffffffffffffffffffffffffffffffffffffffff1673ffffffffffffffffffffffffffffffffffffffff161490505b919050565b6000806000610e8b84610db4565b1515610e9657600080fd5b6000808573ffffffffffffffffffffffffffffffffffffffff1673ffffffffffffffffffffffffffffffffffffffff168152602001908152602001600020600401549150600180808054905003815481101515610eef57fe5b9060005260206000200160009054906101000a900473ffffffffffffffffffffffffffffffffffffffff16905080600183815481101515610f2c57fe5b9060005260206000200160006101000a81548173ffffffffffffffffffffffffffffffffffffffff021916908373ffffffffffffffffffffffffffffffffffffffff160217905550816000808373ffffffffffffffffffffffffffffffffffffffff1673ffffffffffffffffffffffffffffffffffffffff168152602001908152602001600020600401819055506001805480919060019003610fcf919061211e565b508373ffffffffffffffffffffffffffffffffffffffff167f9a67af531bfbfd34f63109e83cfab08e30f92a1827d5c3f50e8fa815469ff9f2836040518082815260200191505060405180910390a28373ffffffffffffffffffffffffffffffffffffffff167f120b81bff87a103db25f478f9838f6c78d30aaccd4fc343961a14962f755f68b6000808773ffffffffffffffffffffffffffffffffffffffff1673ffffffffffffffffffffffffffffffffffffffff168152602001908152602001600020600401546000808873ffffffffffffffffffffffffffffffffffffffff1673ffffffffffffffffffffffffffffffffffffffff1681526020019081526020016000206000016000808973ffffffffffffffffffffffffffffffffffffffff1673ffffffffffffffffffffffffffffffffffffffff1681526020019081526020016000206001016000808a73ffffffffffffffffffffffffffffffffffffffff1673ffffffffffffffffffffffffffffffffffffffff1681526020019081526020016000206002016000808b73ffffffffffffffffffffffffffffffffffffffff1673ffffffffffffffffffffffffffffffffffffffff168152602001908152602001600020600301546040518086815260200180602001806020018060200185815260200184810384528881815460018160011615610100020316600290048152602001915080546001816001161561010002031660029004801561123a5780601f1061120f5761010080835404028352916020019161123a565b820191906000526020600020905b81548152906001019060200180831161121d57829003601f168201915b50508481038352878181546001816001161561010002031660029004815260200191508054600181600116156101000203166002900480156112bd5780601f10611292576101008083540402835291602001916112bd565b820191906000526020600020905b8154815290600101906020018083116112a057829003601f168201915b50508481038252868181546001816001161561010002031660029004815260200191508054600181600116156101000203166002900480156113405780601f1061131557610100808354040283529160200191611340565b820191906000526020600020905b81548152906001019060200180831161132357829003601f168201915b50509850505050505050505060405180910390a28192505050919050565b6060806060600061136e85610db4565b151561137957600080fd5b6000808673ffffffffffffffffffffffffffffffffffffffff1673ffffffffffffffffffffffffffffffffffffffff1681526020019081526020016000206000016000808773ffffffffffffffffffffffffffffffffffffffff1673ffffffffffffffffffffffffffffffffffffffff1681526020019081526020016000206001016000808873ffffffffffffffffffffffffffffffffffffffff1673ffffffffffffffffffffffffffffffffffffffff1681526020019081526020016000206002016000808973ffffffffffffffffffffffffffffffffffffffff1673ffffffffffffffffffffffffffffffffffffffff16815260200190815260200160002060030154838054600181600116156101000203166002900480601f0160208091040260200160405190810160405280929190818152602001828054600181600116156101000203166002900480156115135780601f106114e857610100808354040283529160200191611513565b820191906000526020600020905b8154815290600101906020018083116114f657829003601f168201915b50505050509350828054600181600116156101000203166002900480601f0160208091040260200160405190810160405280929190818152602001828054600181600116156101000203166002900480156115af5780601f10611584576101008083540402835291602001916115af565b820191906000526020600020905b81548152906001019060200180831161159257829003601f168201915b50505050509250818054600181600116156101000203166002900480601f01602080910402602001604051908101604052809291908181526020018280546001816001161561010002031660029004801561164b5780601f106116205761010080835404028352916020019161164b565b820191906000526020600020905b81548152906001019060200180831161162e57829003601f168201915b5050505050915093509350935093509193509193565b600061166c83610db4565b151561167757600080fd5b816000808573ffffffffffffffffffffffffffffffffffffffff1673ffffffffffffffffffffffffffffffffffffffff16815260200190815260200160002060020190805190602001906116cc92919061209e565b508273ffffffffffffffffffffffffffffffffffffffff167f120b81bff87a103db25f478f9838f6c78d30aaccd4fc343961a14962f755f68b6000808673ffffffffffffffffffffffffffffffffffffffff1673ffffffffffffffffffffffffffffffffffffffff168152602001908152602001600020600401546000808773ffffffffffffffffffffffffffffffffffffffff1673ffffffffffffffffffffffffffffffffffffffff1681526020019081526020016000206000016000808873ffffffffffffffffffffffffffffffffffffffff1673ffffffffffffffffffffffffffffffffffffffff168152602001908152602001600020600101866000808a73ffffffffffffffffffffffffffffffffffffffff1673ffffffffffffffffffffffffffffffffffffffff16815260200190815260200160002060030154604051808681526020018060200180602001806020018581526020018481038452888181546001816001161561010002031660029004815260200191508054600181600116156101000203166002900480156118a95780601f1061187e576101008083540402835291602001916118a9565b820191906000526020600020905b81548152906001019060200180831161188c57829003601f168201915b505084810383528781815460018160011615610100020316600290048152602001915080546001816001161561010002031660029004801561192c5780601f106119015761010080835404028352916020019161192c565b820191906000526020600020905b81548152906001019060200180831161190f57829003601f168201915b5050848103825286818151815260200191508051906020019080838360005b8381101561196657808201518184015260208101905061194b565b50505050905090810190601f1680156119935780820380516001836020036101000a031916815260200191505b509850505050505050505060405180910390a26001905092915050565b60006119bb83610db4565b15156119c657600080fd5b816000808573ffffffffffffffffffffffffffffffffffffffff1673ffffffffffffffffffffffffffffffffffffffff1681526020019081526020016000206001019080519060200190611a1b92919061209e565b508273ffffffffffffffffffffffffffffffffffffffff167f120b81bff87a103db25f478f9838f6c78d30aaccd4fc343961a14962f755f68b6000808673ffffffffffffffffffffffffffffffffffffffff1673ffffffffffffffffffffffffffffffffffffffff168152602001908152602001600020600401546000808773ffffffffffffffffffffffffffffffffffffffff1673ffffffffffffffffffffffffffffffffffffffff168152602001908152602001600020600001856000808973ffffffffffffffffffffffffffffffffffffffff1673ffffffffffffffffffffffffffffffffffffffff1681526020019081526020016000206002016000808a73ffffffffffffffffffffffffffffffffffffffff1673ffffffffffffffffffffffffffffffffffffffff1681526020019081526020016000206003015460405180868152602001806020018060200180602001858152602001848103845288818154600181600116156101000203166002900481526020019150805460018160011615610100020316600290048015611bf85780601f10611bcd57610100808354040283529160200191611bf8565b820191906000526020600020905b815481529060010190602001808311611bdb57829003601f168201915b5050848103835287818151815260200191508051906020019080838360005b83811015611c32578082015181840152602081019050611c17565b50505050905090810190601f168015611c5f5780820380516001836020036101000a031916815260200191505b50848103825286818154600181600116156101000203166002900481526020019150805460018160011615610100020316600290048015611ce15780601f10611cb657610100808354040283529160200191611ce1565b820191906000526020600020905b815481529060010190602001808311611cc457829003601f168201915b50509850505050505050505060405180910390a26001905092915050565b6000600180549050905090565b6000611d1783610db4565b1515611d2257600080fd5b816000808573ffffffffffffffffffffffffffffffffffffffff1673ffffffffffffffffffffffffffffffffffffffff1681526020019081526020016000206000019080519060200190611d7792919061209e565b508273ffffffffffffffffffffffffffffffffffffffff167f120b81bff87a103db25f478f9838f6c78d30aaccd4fc343961a14962f755f68b6000808673ffffffffffffffffffffffffffffffffffffffff1673ffffffffffffffffffffffffffffffffffffffff16815260200190815260200160002060040154846000808873ffffffffffffffffffffffffffffffffffffffff1673ffffffffffffffffffffffffffffffffffffffff1681526020019081526020016000206001016000808973ffffffffffffffffffffffffffffffffffffffff1673ffffffffffffffffffffffffffffffffffffffff1681526020019081526020016000206002016000808a73ffffffffffffffffffffffffffffffffffffffff1673ffffffffffffffffffffffffffffffffffffffff1681526020019081526020016000206003015460405180868152602001806020018060200180602001858152602001848103845288818151815260200191508051906020019080838360005b83811015611f0b578082015181840152602081019050611ef0565b50505050905090810190601f168015611f385780820380516001836020036101000a031916815260200191505b50848103835287818154600181600116156101000203166002900481526020019150805460018160011615610100020316600290048015611fba5780601f10611f8f57610100808354040283529160200191611fba565b820191906000526020600020905b815481529060010190602001808311611f9d57829003601f168201915b505084810382528681815460018160011615610100020316600290048152602001915080546001816001161561010002031660029004801561203d5780601f106120125761010080835404028352916020019161203d565b820191906000526020600020905b81548152906001019060200180831161202057829003601f168201915b50509850505050505050505060405180910390a26001905092915050565b600060018281548110151561206c57fe5b9060005260206000200160009054906101000a900473ffffffffffffffffffffffffffffffffffffffff169050919050565b828054600181600116156101000203166002900490600052602060002090601f016020900481019282601f106120df57805160ff191683800117855561210d565b8280016001018555821561210d579182015b8281111561210c5782518255916020019190600101906120f1565b5b50905061211a919061214a565b5090565b81548183558181111561214557818360005260206000209182019101612144919061214a565b5b505050565b61216c91905b80821115612168576000816000905550600101612150565b5090565b905600a165627a7a72305820c599d7ed40a72c8ac67e3a3d8c9f650b5eb6e5e969ff5ef45b499938a57e4dcc0029",
  "source": "pragma solidity ^0.4.0;\r\n\r\ncontract MainContract {\r\n\r\n    \r\n    struct userStruct {\r\n        string userFullName;\r\n        string userType;\r\n        string userBrand ;\r\n        uint userAge;\r\n        uint index ;\r\n    }\r\n\r\n\r\n    mapping (address => userStruct) private userStructs ;\r\n    address[] private userList;\r\n\r\n    event LogNewUser   (address indexed userAddress, uint index, string userFullName, string userType, string userBrand, uint userAge);\r\n    event LogUpdateUser(address indexed userAddress, uint index, string userFullName, string userType, string userBrand, uint userAge);\r\n    event LogDeleteUser(address indexed userAddress, uint index);\r\n\r\n\r\n    function isUser(address userAddress) public view returns(bool isIndeed) {\r\n        if (userList.length == 0) {\r\n            return false;\r\n        } \r\n        return (userList[userStructs[userAddress].index] == userAddress);\r\n    }\r\n\r\n\r\n    function insertUser(address userAddress, string _userFullName, string _userType, string _userBrand, uint _userAge) public returns(uint index) {\r\n        require(!isUser(userAddress)); \r\n        userStructs[userAddress].userFullName = _userFullName;\r\n        userStructs[userAddress].userAge = _userAge;\r\n        userStructs[userAddress].index = userList.push(userAddress)-1;\r\n        LogNewUser(userAddress, userStructs[userAddress].index, _userFullName, _userType, _userBrand, _userAge);\r\n        return userList.length-1;\r\n    }\r\n\r\n    function getUser(address userAddress) public view returns (string userFullName, string userType, string userBrand, uint userAge) {\r\n        require(isUser(userAddress));\r\n        return (userStructs[userAddress].userFullName, userStructs[userAddress].userType, userStructs[userAddress].userBrand, userStructs[userAddress].userAge) ;\r\n    }\r\n\r\n\r\n    function updateUserFullName(address userAddress, string _userFullName) public returns(bool success) {\r\n        require(isUser(userAddress)); \r\n        userStructs[userAddress].userFullName = _userFullName;\r\n        LogUpdateUser(userAddress, userStructs[userAddress].index, _userFullName, userStructs[userAddress].userType, userStructs[userAddress].userBrand, userStructs[userAddress].userAge);\r\n        return true;\r\n    }\r\n\r\n    function updateUserType(address userAddress, string _userType) public returns(bool success) {\r\n        require(isUser(userAddress)); \r\n        userStructs[userAddress].userType = _userType;\r\n        LogUpdateUser(userAddress, userStructs[userAddress].index, userStructs[userAddress].userFullName, _userType, userStructs[userAddress].userBrand, userStructs[userAddress].userAge);\r\n        return true;\r\n    }\r\n\r\n    function updateUserBrand(address userAddress, string _userBrand) public returns(bool success) {\r\n        require(isUser(userAddress)); \r\n        userStructs[userAddress].userBrand = _userBrand;\r\n        LogUpdateUser(userAddress, userStructs[userAddress].index, userStructs[userAddress].userFullName, userStructs[userAddress].userType, _userBrand, userStructs[userAddress].userAge);\r\n        return true;\r\n    }\r\n\r\n    function updateUserAge(address userAddress, uint _userAge) public returns(bool success) {\r\n        require(isUser(userAddress)); \r\n        userStructs[userAddress].userAge = _userAge;\r\n        LogUpdateUser(userAddress, userStructs[userAddress].index, userStructs[userAddress].userFullName, userStructs[userAddress].userType, userStructs[userAddress].userBrand, _userAge);\r\n        return true;\r\n    }\r\n\r\n    function getUserCount() public view returns(uint count) {\r\n        return userList.length ;\r\n    }\r\n\r\n    function getUserAtIndex(uint index) public view returns(address userAdress) {\r\n        return userList[index] ;\r\n    }\r\n\r\n    function deleteUser(address userAddress) public returns(uint index) {\r\n        require(isUser(userAddress)); \r\n        uint rowToDelete = userStructs[userAddress].index;\r\n        address keyToMove = userList[userList.length-1];\r\n        userList[rowToDelete] = keyToMove;\r\n        userStructs[keyToMove].index = rowToDelete; \r\n        userList.length--;\r\n        LogDeleteUser(userAddress, rowToDelete);\r\n        LogUpdateUser(userAddress, userStructs[userAddress].index, userStructs[userAddress].userFullName, userStructs[userAddress].userType, userStructs[userAddress].userBrand, userStructs[userAddress].userAge);\r\n        return rowToDelete;\r\n    }\r\n}",
  "sourcePath": "F:\\ProjectsDirectory\\BlockchainProjects\\FoodSafetyProject\\contracts\\MainContract.sol",
  "compiler": {
    "name": "solc",
    "version": "0.4.24+commit.e67f0147.Emscripten.clang"
  },
  "schemaVersion": "2.0.1",
  "updatedAt": "2018-08-02T15:01:33.566Z"
}